:020000040C01ED
:1034000000080230A137010CE1BB010C19CD010C01
:103410001DCD010C21CD010C25CD010CC5CC010C1D
:10342000000000000000000000000000C9CC010CFA
:10343000F535010C0000000089CC010CF935010CB8
:10344000FD35010C0136010C0536010C0936010C65
:103450000D36010C1136010C1536010C1936010C14
:103460001D36010C2136010C2536010C2936010CC4
:103470002D36010C3136010C3536010C3936010C74
:103480003D36010C4136010C4536010C4936010C24
:103490004D36010C5136010C5536010C5936010CD4
:1034A0005D36010C6136010C6536010C6936010C84
:1034B0006D36010C7136010C7536010C7936010C34
:1034C0007D36010C8136010C8536010C8936010CE4
:1034D0008D36010C9136010C9536010C9936010C94
:1034E0009D36010CA136010CA536010CA936010C44
:1034F000AD36010CB136010CB536010CB936010CF4
:10350000BD36010CC136010CC536010CC936010CA3
:10351000CD36010CD136010CD536010CD936010C53
:10352000DD36010CE136010CE536010CE936010C03
:10353000ED36010CF136010CF536010CF936010CB3
:10354000FD36010C0137010C0537010C0937010C60
:103550000D37010C1137010C1537010C1937010C0F
:103560001D37010C2137010C2537010C2937010CBF
:103570002D37010C000000003137010C0000000065
:103580003537010C3937010C3D37010C4137010C3F
:103590004537010C4937010C4D37010C5137010CEF
:1035A0005537010C5937010C5D37010C6137010C9F
:1035B0006537010C000000006937010C6D37010C04
:1035C0007137010C000000007537010C7937010CD0
:1035D0007D37010C8137010C8537010C8937010CCF
:1035E0008D37010C9137010C9537010C9937010C7F
:1035F0009D37010CFEE700BFFEE700BFFEE700BFFE
:10360000FEE700BFFEE700BFFEE700BFFEE700BF2A
:10361000FEE700BFFEE700BFFEE700BFFEE700BF1A
:10362000FEE700BFFEE700BFFEE700BFFEE700BF0A
:10363000FEE700BFFEE700BFFEE700BFFEE700BFFA
:10364000FEE700BFFEE700BFFEE700BFFEE700BFEA
:10365000FEE700BFFEE700BFFEE700BFFEE700BFDA
:10366000FEE700BFFEE700BFFEE700BFFEE700BFCA
:10367000FEE700BFFEE700BFFEE700BFFEE700BFBA
:10368000FEE700BFFEE700BFFEE700BFFEE700BFAA
:10369000FEE700BFFEE700BFFEE700BFFEE700BF9A
:1036A000FEE700BFFEE700BFFEE700BFFEE700BF8A
:1036B000FEE700BFFEE700BFFEE700BFFEE700BF7A
:1036C000FEE700BFFEE700BFFEE700BFFEE700BF6A
:1036D000FEE700BFFEE700BFFEE700BFFEE700BF5A
:1036E000FEE700BFFEE700BFFEE700BFFEE700BF4A
:1036F000FEE700BFFEE700BFFEE700BFFEE700BF3A
:10370000FEE700BFFEE700BFFEE700BFFEE700BF29
:10371000FEE700BFFEE700BFFEE700BFFEE700BF19
:10372000FEE700BFFEE700BFFEE700BFFEE700BF09
:10373000FEE700BFFEE700BFFEE700BFFEE700BFF9
:10374000FEE700BFFEE700BFFEE700BFFEE700BFE9
:10375000FEE700BFFEE700BFFEE700BFFEE700BFD9
:10376000FEE700BFFEE700BFFEE700BFFEE700BFC9
:10377000FEE700BFFEE700BFFEE700BFFEE700BFB9
:10378000FEE700BFFEE700BFFEE700BFFEE700BFA9
:10379000FEE700BFFEE700BFFEE700BFFEE700BF99
:1037A00008B572B62A4B83F30A882A4B83F308883C
:1037B00005F05AFE284B83F30988284B83F30B88C6
:1037C000EFF3148040F0020080F31488244B254C62
:1037D000A34238BF9C4616D2DCF808309B080ED0B6
:1037E000DCE9001200230439043A51F8040F0133D4
:1037F00042F8040FDCF80800B3EB900FF5D30CF19E
:103800000C0CA445E8D31848184B98421DD200244C
:1038100003F1FF3CACEB000C00F110032CF0070CA3
:1038200008309C4450F8043C9B080BD0002350F80F
:10383000082C043A42F8044F50F8041C0133B3EB4F
:10384000910FF7D308308445ECD10BF0B7F800BFE7
:10385000000402300008023000100230000802307C
:103860007038010C9438010C9438010CAC38010C00
:1038700060C4020C80BA0230CC00000000E9010CE8
:10388000603C023040000000E0E8010C0010023013
:043890002000000014
:1038940050BB0230141C0000A03C0230E07D00004C
:0838A40020100230401C00005E
:1038AC0001015F5F030100001F030000D53B010C09
:1038BC0000200000000000000400000001000000D7
:1038CC0000000000000000006881023000000000D1
:1038DC007000000071000000720000007300000016
:1038EC00ACAF020C100000008000000000070000CC
:1038FC000100000000015F5F050100001F030000D4
:10390C004D5B010C800A000000000000010000006B
:10391C00020000000000000000000000E8A30230DC
:10392C000000000080000000B8AF020C1000000086
:10393C00200000000005000001000000D0AF020CC8
:10394C002000000021000000000500000100000024
:10395C0000015F5F000100001F020000AD82010C3E
:10396C000008000000000000060000000500000038
:10397C00000000000000000058220230000000008F
:10398C008000000070000000710000007200000058
:10399C007300000042000000ECAF020C10000000AD
:1039AC00600000000005000001000000F8AF020CF0
:1039BC002000000061000000000500000100000074
:1039CC0004B0020C40000000620000000005000082
:1039DC000100000014B0020C800000006300000025
:1039EC00000500000100000024B0020C00010000E2
:1039FC0064000000000500000100000000015F5F92
:103A0C00010100001F0300009568010C80060000F6
:103A1C000000000000000000040000000000000096
:103A2C000000000000AF02300000000038B0020CB3
:103A3C0010000000700000000005000001000000F4
:103A4C0044B0020C200000007100000000050000D2
:103A5C000100000050B0020C400000007200000099
:103A6C00000500000100000064B0020C80000000A2
:103A7C0073000000000500000100000000015F5F02
:103A8C00040100001F030000397D010C000500003B
:103A9C000000000000000000030000000000000017
:103AAC000000000080B502300000000074B0020C71
:103ABC0010000000400000000005000001000000A4
:103ACC0094B0020C20000000410000000005000032
:103ADC0001000000ACB0020C4000000042000000ED
:103AEC00000400000100000001015F5F10010000F4
:103AFC001F020000DD93010C00020000000000001A
:103B0C0000000000030000000000000000000000A6
:103B1C00582A023000000000C8B0020C100000004F
:103B2C0020F100000303000001000000DCB0020CD7
:103B3C002000000021F10000010300000100000042
:103B4C00F0B0020C4000000022F100000203000063
:103B5C000100000000015F5F00000000FE02000099
:103B6C0055E9010C000800000000000000000000F6
:103B7C0000000000000000000000000000080230FF
:103B8C000000000001015F5F01000000FF03000066
:103B9C0079CD010C60000000000000000000000066
:103BAC00000000000000000000000000E0C0023037
:043BBC000000000005
:103BC0000346034A0020D2F804241A60704700BF5D
:103BD000206D02302DE9F04FA9B000F041F910B18D
:103BE00029B0BDE8F08F4FF402519A480BF006FC63
:103BF00015F09CFD00284BD10EF00AFB0028EFD1F8
:103C0000954F01462C2211A80BF08AFA4FF0FF388D
:103C100007F5805631E010201CA90BF077FA002838
:103C200034D11C99002932D12C231D9811AA0BF0F4
:103C30006FFA2C282FD1DDF84480B8F1420F2ED82E
:103C40002022002101A80BF06BFA2022002109A8F4
:103C50000BF066FA239B002B40F0F980229B002B8F
:103C600040F0F280219B002B49D1209BE3B96FF0FB
:103C7000830421461D980BF04FFA4FF000414FF09E
:103C8000FF300BF041FAC306C5D4FEE7FEE7FEE7BE
:103C90006FF09200A4E7B8F1FF3FE8D0D0E74FF013
:103CA000FF386FF08304E4E711AB01932C234FF04E
:103CB000010A02932799002940F0C480269B002B1B
:103CC00040F0BE80259B002B7DD1249B002B4DD145
:103CD0001E9A624CC6F8042454F82840514609AA9A
:103CE00001A8A0470446002538462946D6F80024F6
:103CF000C6F804540BF014FAC6F80054B9E74FF0B4
:103D0000020A11AB01932C23012402930DF18409C3
:103D100001AD10E02146C6F800045A461D980BF08C
:103D2000F7F9013459F8043C5445C5F808B0EB6084
:103D300005F10805BED259F8043BD6F80024D91C79
:103D400021F00301C2F5A05C614507EB020B01EB1A
:103D50000200DFD9002538462946C6F804546FF022
:103D60008C040BF0DDF9C6F8005482E7D6F8002485
:103D7000D91C21F00301C2F5A0508142EAD80125E7
:103D80000A93BB1809930A441E9B344C514654F8BD
:103D90002840C6F80024C6F8043409AA2B4601A816
:103DA000A0474FF0000904460DF1240A4946DAF80D
:103DB00004301D985AF8082B09F101090BF0AAF9F3
:103DC000A945F3D18FE702252498D6F80024C31C17
:103DD00023F00303C2F5A054A342BBD80A90259850
:103DE000BC181A44C31C099423F00303C2F5A05461
:103DF000A34220D80C90022D07EB02000B901A442E
:103E0000C2D0269CC2F5A050E31C23F003038342DA
:103E100011D8B818042D0E940D901A440ED1CB1C55
:103E200023F00303C2F5A050834204D81091B918BF
:103E30000F911A44A8E7C6F800248BE70325A3E7EF
:103E40000325C1E70425BFE74FF0030A59E74FF008
:103E5000040A56E7A03C0230205D02300880010CC5
:103E600008B54FF46C62002102480BF059F90020AC
:103E700008BD00BF287102300023F0B583B00546AD
:103E800001A80F4616460193FFF79AFE00BB3B6858
:103E9000002B3CD1002E3DD0204B30601C68D4B1AB
:103EA000D3F8D821B2B1D3F8B02342B3D3F88825E0
:103EB0003AB3D3F8602702B3D3F838291AB3D3F84A
:103EC000102B12B3D3F8E82C072422B16FF0840032
:103ED00003B0F0BD012401214FF4EC7C62180CFB0F
:103EE00004F4195104F10C011C440B440199C4E978
:103EF00001153A60336003B0F0BD0424EBE70224FF
:103F0000E9E70324E7E70524E5E70624E3E76FF0A4
:103F10008800DDE76FF08600DAE700BF2871023025
:103F2000F0B50023054683B001A82C680193FFF784
:103F300047FE064638BB013C072C27D84FF4EC73EC
:103F400004FB03F3144FF958FA1801291ED15068E5
:103F5000019988421AD192680C33013A032A07EB7F
:103F6000030096BF0D4B324653F8222000210BF080
:103F7000D7F84FF4EC72002302FB04F43B513C44AD
:103F8000C4E901332B60304603B0F0BD6FF0860604
:103F9000304603B0F0BD00BF287102301481010C1F
:103FA000002370B582B0054601A80C461646019361
:103FB000FFF706FEA8B9611E072914D84FF4EC726A
:103FC00002FB01F10A4B5C585A18012C0BD1946882
:103FD000AC4208D15468019A944204D10C3119447E
:103FE000316002B070BD6FF0880002B070BD00BFDC
:103FF000287102302DE9F041002582B00129019598
:1040000024D1013B012B21D843682C2B1ED15368AE
:104010001446042B1AD1036816681D699768D2F8F4
:104020000C8008463560294601AAFFF7B9FF10B198
:1040300002B0BDE8F081424639460198356004F18E
:104040000C030DF027FF02B0BDE8F0816FF0800097
:10405000EEE700BF30B50024013983B00129019497
:104060001ED8012B844618461AD1DCF804302C2BBC
:1040700016D15368042B13D1DCE90245DCF800109B
:104080001368096901AA1960FFF78AFF08B103B034
:1040900030BD2A46214601980DF0AAFA03B030BD82
:1040A0006FF08000F3E700BF2DE9F041002484B0F9
:1040B0000129009439D1012B1D4636D15368042BB8
:1040C00033D143682C2B30D1036816689F68D3E93D
:1040D00003823846019200F0AFFC044618B1204636
:1040E00004B0BDE8F08128466A4601A9FFF7C4FE86
:1040F00004460028F3D1019B02AD384629463360BF
:1041000000F0C2FC044630B13046FFF709FF2046FC
:1041100004B0BDE8F081434695E8060000980DF034
:104120004FFA04460028DAD0EEE76FF08004D6E7B5
:104130002DE9F041002484B00129009439D1012BEC
:104140001D4636D15368042B33D143682C2B30D114
:10415000036816689F68D3E903823846019200F02D
:104160006BFC044618B1204604B0BDE8F081284637
:104170006A4601A9FFF780FE04460028F3D1019B9F
:1041800002AD38462946336000F07EFC044630B16B
:104190003046FFF7C5FE204604B0BDE8F081434637
:1041A00095E8060000980DF017FA04460028DAD0CA
:1041B000EEE76FF08004D6E72DE9F04300250139E2
:1041C00085B00129039527D8013B012B24D84368EA
:1041D0002C2B21D153681446042B1DD1D2E9029611
:1041E0000368876819691368D0F80C80196001208A
:1041F000D56003AAFFF7D4FE10B105B0BDE8F08387
:104200000C344B46424639460398019400960DF013
:104210000DFA05B0BDE8F0836FF08000EDE700BF58
:104220002DE9F043002683B0012901962CD1013BF2
:10423000012B29D843682C2B26D153681446042B14
:1042400022D1D2E902890D46036817681969284608
:104250003960D66001AAFFF7A3FE054618B12846CB
:1042600003B0BDE8F0834A464146019804F10C03CF
:104270000DF0F6F905460028F1D13846FFF750FE5B
:10428000284603B0BDE8F0836FF08005E7E700BF84
:1042900030B5002483B00129019427D1012B844635
:1042A000184623D1DCF804302C2B1FD15368042B83
:1042B0001CD1DCF800301568196901AA2960FFF7E4
:1042C0006FFE10B1204603B030BD01980DF0DCF850
:1042D000044628462CB9FFF723FE0446204603B0C7
:1042E00030BDFFF71DFE204603B030BD6FF08004E7
:1042F000E8E700BF013901292ED8012B2CD14368F2
:1043000084462C2B28D12DE9F047DCE90264D2E960
:104310000078036886B0D3E902A55046914600F0C4
:104320008BFB10B106B0BDE8F08750460DF1100AC6
:10433000514600F0A9FB0028F4D1CDE9017809F13C
:1043400004020392009433469AE803002A460DF0D3
:10435000CFFD06B0BDE8F0876FF08000704700BF6A
:10436000013901292ED8012B2CD1436884462C2BEE
:1043700028D12DE9F047DCE90264D2E9007803682E
:1043800086B0D3E902A55046914600F055FB10B126
:1043900006B0BDE8F08750460DF1100A514600F016
:1043A00073FB0028F4D1CDE9017809F104020392EE
:1043B000009433469AE803002A460DF06DF906B0E2
:1043C000BDE8F0876FF08000704700BF70B5002433
:1043D00082B00129009426D1012B24D15368042BEB
:1043E00021D143682C2B1ED101681568D1E90363E4
:1043F0006A46019303202B6001A9FFF73DFD0446A7
:1044000010B1204602B070BD019B009831462B6070
:104410000CF061FC04460028F3D02846FFF780FD2D
:10442000204602B070BD6FF08004EAE730B500248A
:10443000013983B0012901941BD8012B19D143689C
:104440002C2B16D15368042B13D1D0E902450168F7
:10445000136809690320196001AAFFF7A1FD08B1DB
:1044600003B030BD2A46214601980CF054FC03B03D
:1044700030BD6FF08000F3E72DE9F041002582B0F8
:10448000012901952BD1013B012B28D843682C2B06
:1044900025D153681446042B21D1D2E90278036850
:1044A0001668196903203160D56001AAFFF778FD0D
:1044B000054618B1284602B0BDE8F08142463946AB
:1044C000019804F10C030CF03AFC05460028F1D1E8
:1044D0003046FFF725FD284602B0BDE8F0816FF0B9
:1044E0008005E7E7F0B50024013983B00129019484
:1044F00024D8012B22D143682C2B1FD15368042BC5
:104500001CD1D0E902670368156819690320296086
:1045100001AAFFF745FD044610B1204603B0F0BDE7
:104520003A46314601980CF01BFC04460028F4D1B1
:104530002846FFF7F5FC204603B0F0BD6FF080047D
:10454000EBE700BF30B5002483B00129019424D1EA
:10455000012B22D143682C2B1FD15368042B1CD173
:10456000036815681969032001AA2960FFF718FD7F
:1045700010B1204603B030BD01980CF0A1FB0446F9
:1045800028462CB9FFF7CCFC0446204603B030BDCA
:10459000FFF7C6FC204603B030BD6FF08004E8E7AB
:1045A00010B5002482B00129CDE9004420D1012BAF
:1045B0001ED143682C2B1BD153689446042B17D172
:1045C00003686A4603201969DCF80040FFF7E8FC3D
:1045D00008B102B010BD2146032001AAFFF74CFC30
:1045E0000028F6D1DDE900010CF01FFC02B010BD7F
:1045F0006FF08000EDE700BF013901291AD8012BC7
:1046000018D8436884462C2B14D130B59646002523
:104610007446036883B08168DCF80C20D868DEE952
:10462000003CCDF800C044F8045F01940CF0BFFBDF
:1046300003B030BD6FF08000704700BF0139022920
:1046400012D88BB9436884462C2B0DD110B5036862
:10465000446982B0D868DCF80810DCE903230094D0
:104660000CF0B6FB02B010BD6FF08000704700BFC9
:104670002DE9F041002484B0012900943BD1012BA5
:1046800039D15368042B36D143682C2B33D10568BC
:104690001768AE682B693046D5F80C80019300F09E
:1046A000CBF9044618B1204604B0BDE8F0812B696F
:1046B0006A4602203B6001A9FFF7DEFB04460028A2
:1046C000F1D1019B02AD304629463B6000F0DCF998
:1046D000044630B13846FFF723FC204604B0BDE85D
:1046E000F081434695E8060000980CF014FC04465F
:1046F0000028D8D0EEE76FF08004D4E72DE9F04130
:10470000002484B0012900943BD1012B39D1536896
:10471000042B36D143682C2B33D105681768AE685B
:104720002B693046D5F80C80019300F085F90446DA
:1047300018B1204604B0BDE8F0812B696A4602201A
:104740003B6001A9FFF798FB04460028F1D1019BCB
:1047500002AD304629463B6000F096F9044630B180
:104760003846FFF7DDFB204604B0BDE8F081434644
:1047700095E8060000980CF0DAFB04460028D8D033
:10478000EEE76FF08004D4E730B50024013983B040
:10479000012901941BD8012B19D143682C2B16D168
:1047A0005368042B13D1D0E90245016813680969E5
:1047B0000220196001AAFFF7F3FB08B103B030BD76
:1047C0002A46214601980CF0BEFB03B030BD6FF0C5
:1047D0008000F3E72DE9F041002582B00129019521
:1047E0002BD1013B012B28D843682C2B25D15368B2
:1047F0001446042B21D1D2E902780368166819699E
:1048000002203160D56001AAFFF7CAFB054618B146
:10481000284602B0BDE8F08142463946019804F1CD
:104820000C030CF0A2FB05460028F1D13046FFF73F
:1048300077FB284602B0BDE8F0816FF08005E7E71E
:10484000F0B50024013983B00129019424D8012B4B
:1048500022D143682C2B1FD15368042B1CD1D0E9E3
:1048600002670368156819690220296001AAFFF729
:1048700097FB044610B1204603B0F0BD3A463146DE
:1048800001980CF051FC04460028F4D12846FFF7AB
:1048900047FB204603B0F0BD6FF08004EBE700BF9C
:1048A00030B5002483B00129019424D1012B22D1F9
:1048B00043682C2B1FD15368042B1CD10368156847
:1048C0001969022001AA2960FFF76AFB10B120468E
:1048D00003B030BD01980CF0BAFA044628462CB952
:1048E000FFF71EFB0446204603B030BDFFF718FB60
:1048F000204603B030BD6FF08004E8E7013901299C
:104900002ED8012B2CD1436884462C2B28D12DE99D
:10491000F047DCE90264D2E90078036886B0D3E9A5
:1049200002A55046914600F087F810B106B0BDE8E8
:10493000F08750460DF1100A514600F0A5F8002806
:10494000F4D1CDE9017809F10402039200943346D1
:104950009AE803002A460CF001FC06B0BDE8F08797
:104960006FF08000704700BF013902292BD853BB7C
:10497000436802462C2B26D12DE9F043D2E90345AA
:104980000368866887B0D3E902974846D2F8148056
:1049900000F052F810B107B0BDE8F08348460DF1C1
:1049A0001009494600F070F80028F4D1CDE900451F
:1049B000CDF80880334699E803003A460CF0E3FB53
:1049C00007B0BDE8F0836FF0800070472DE9F04735
:1049D0008AB070B3144662B305460E462822002101
:1049E00068460AF09DFBA646EC460027BCE80F008F
:1049F000D5F804A0B5F80090B5F80280AEE80F0035
:104A0000BCE80F00AEE80F009CE803008EE803004E
:104A1000C4F804A0D5E90323C4E90423AB68A4F8CF
:104A20000090A4F80280C4E9023638460AB0BDE816
:104A3000F0876FF08007F8E7002330B583B00446B5
:104A400001A80193FFF7BCF870B90E4D02462B4642
:104A5000197A11B159688C4208D00132202A03F129
:104A60000C03F5D16FF0870003B030BD02EB4202BA
:104A700055F82220019B9A4218BF6FF0840003B0C2
:104A800030BD00BFE87F0230002230B583B005465C
:104A900001A80C460192FFF793F818B924B1019BC5
:104AA000C4E9005303B030BD6FF08000FAE700BFE7
:104AB00000238446074A01E0202B08D0107AD9B29F
:104AC0000C3201330028F7D18CF8001070476FF0DA
:104AD0008C007047E87F023030B583B0044601A8EF
:104AE0000D46FFF76DF858B9E3B20124054903EB11
:104AF000430301EB83025560019D147241F823507A
:104B000003B030BDE87F02306FF08500704700BF12
:104B10006FF08500704700BF0239012973D8012B5F
:104B200071D143682C2B6ED1C368142B6BD15368A1
:104B3000042B68D12DE9F04FD0E90489002499B005
:104B4000324E856817680021282204A80AF0E8FA86
:104B50003346039402E00134202C4CD01A7A0C33F3
:104B6000002AF8D103A8FFF72BF810B119B0BDE85F
:104B7000F08F039B0093002D42D0014628220EA8FF
:104B80000AF0CEFA6A680DF1100C0DF1380EB5F886
:104B900000B0B5F802A00192BEE80F00ACE80F002B
:104BA000019AADF810B00592BEE80F00ACE80F0016
:104BB0009EE803008CE80300D5E903ECCDE908EC9E
:104BC000ADF812A0AD680EAB0695009D4A46414671
:104BD00004A807950BF091FF0E9B3B600028C5D100
:104BE00004EB440406EB840253600123039913721F
:104BF00046F82410BAE76FF08C0019B0BDE8F08FCA
:104C00006FF08000B2E76FF080007047E87F0230FD
:104C100002293CD1012B3AD143682C2B37D1C368F0
:104C2000042B34D15368042B31D1F0B5194D002435
:104C30002B4685B002E00134202C24D0197A0C33A5
:104C40000029F8D1836801A81F681668FEF7B8FF2D
:104C500008B105B0F0BD019B02AACDE9027392E84C
:104C600003000EF058FB029B33600028F1D104EBE7
:104C7000440405EB8402536001230199137245F843
:104C8000241005B0F0BD6FF08C0005B0F0BD6FF0E2
:104C900080007047E87F0230012941D12DE9F041C1
:104CA0001C4682B0002B38D143682C2B35D16F467F
:104CB000036838469D680094FEF782FF68B91A4E73
:104CC00033461A7A12B15A68954209D00134202C21
:104CD00003F10C03F5D16FF0870002B0BDE8F0815D
:104CE00004EB44044FEA840856F80830009A06EBB7
:104CF0008404934218BF6FF08400EED1CDE90053D5
:104D000097E803000EF025FB0028E6D146F80800DE
:104D10006060207202B0BDE8F0816FF08000DCE7D7
:104D20006FF08000704700BFE87F0230012941D159
:104D30002DE9F0411C4682B0002B38D143682C2B62
:104D400035D16F46036838469D680094FEF738FFFA
:104D500068B91A4E33461A7A12B15A68954209D088
:104D60000134202C03F10C03F5D16FF0870002B061
:104D7000BDE8F08104EB44044FEA840856F808309B
:104D8000009A06EB8404934218BF6FF08400EED1C2
:104D9000CDE9005397E803000BF08FFD0028E6D122
:104DA00046F808006060207202B0BDE8F0816FF044
:104DB0008000DCE76FF08000704700BFE87F0230C2
:104DC00001294CD1012B4AD143682C2B47D170B516
:104DD00053681446142B8CB03ED10368282200215E
:104DE0006E4602A89D6824680AF09AF900233046AE
:104DF0000093FEF7E5FE68B91A490B461A7A12B11C
:104E00005A68954208D00130202803F10C03F5D1EF
:104E10006FF087000CB070BD00EB400051F82030FF
:104E2000009A934218BF6FF08400F3D1CDE900538C
:104E300002AA96E803000BF06BFD0028EAD15CB1F2
:104E4000DDE906230399049DC4E90323C4E90115A0
:104E5000029921600CB070BD6FF08000DAE76FF04E
:104E600080007047E87F02302DE9F043012997B0B8
:104E700052D1012B50D143682C2B4DD1536814468D
:104E8000142B49D12822002102A824680AF048F9ED
:104E900001A8FEF795FE054618B1284617B0BDE8F3
:104EA000F083019E002C37D0014628220CA80AF07E
:104EB00037F90DF1300C0DF1080EB4F80090678849
:104EC000D4F80480BCE80F00AEE80F00BCE80F0087
:104ED000AEE80F009CE803008EE80300D4E903234A
:104EE000CDE90623A36802A8ADF80890CDF80C80A0
:104EF000ADF80A70CDE904360DF0DCF9DDE90623E2
:104F000004980399C4E90323C4E9011028460299CF
:104F1000216017B0BDE8F0836FF08005BDE700BFEA
:104F200001293FD1012B3DD843682C2B3AD12DE9E3
:104F3000F0430023914685B0026802AD2846D2F8BE
:104F40000880D9F80060D9F804700293FEF738FEA3
:104F500068B9164A11460C7A14B14B68984509D0C5
:104F60000130202801F10C01F5D16FF0870005B068
:104F7000BDE8F08300EB400052F82030029A9342E3
:104F800018BF6FF08400F2D1CDE9028309F104016A
:104F900000913B4695E8030032460BF004FD05B056
:104FA000BDE8F0836FF08000704700BFE87F0230FB
:104FB00001293FD1012B3DD843682C2B3AD12DE953
:104FC000F0430023914685B0026802AD2846D2F82E
:104FD0000880D9F80060D9F804700293FEF7F0FD5C
:104FE00068B9164A11460C7A14B14B68984509D035
:104FF0000130202801F10C01F5D16FF0870005B0D8
:10500000BDE8F08300EB400052F82030029A934252
:1050100018BF6FF08400F2D1CDE9028309F10401D9
:1050200000913B4695E8030032460BF02BFD05B09E
:10503000BDE8F0836FF08000704700BFE87F02306A
:10504000012941D12DE9F0411C4682B0002B38D115
:1050500043682C2B35D16F46036838469D68009411
:10506000FEF7AEFD68B91A4E33461A7A12B15A6885
:10507000954209D00134202C03F10C03F5D16FF0D7
:10508000870002B0BDE8F08104EB44044FEA8408D5
:1050900056F80830009A06EB8404934218BF6FF06C
:1050A0008400EED1CDE9005397E803000EF06EF9CD
:1050B0000028E6D146F808006060207202B0BDE822
:1050C000F0816FF08000DCE76FF08000704700BF78
:1050D000E87F02302DE9F04F02299DB07AD1012BF3
:1050E00078D143682C2B75D153681446042B71D1A9
:1050F000C368142B6ED1D4F800B000240368484E66
:1051000087682822002108A8D3F80880B2460AF050
:1051100007F83346059402E00134202C54D01A7A63
:105120000C33002AF8D105A8FEF74AFD054618B150
:1051300028461DB0BDE8F08F059B0193002F49D094
:105140000DF1480901462822484609F0E9FFCE46FC
:105150003A88788879680DF1200CADF80C2002911E
:10516000ADF80E00BEE80F00ACE80F00BDF80C2053
:105170000299BDF80E00ADF820200991ADF822008B
:10518000BEE80F00ACE80F009EE803008CE80300C7
:10519000D7E90323CDE90C23BB6848460A93019B5A
:1051A00012950B93FEF70CFD05460028C0D1337A0B
:1051B00013B17368984510D00135202D06F10C0607
:1051C000F5D16FF08705B3E76FF08C0528461DB069
:1051D000BDE8F08F6FF08005AAE705EB45055AF8AA
:1051E0002530129A934218BF6FF08405A0D1CDE903
:1051F000128308AA06AB99E803000BF0D6FC069BC5
:105200000546CBF80030002892D104EB44040AEBA9
:10521000840253600123059913724AF8241087E72A
:10522000E87F023002296FD1012B6DD143682C2B0E
:105230006AD1C368142B67D12DE9F04F5368144627
:10524000042B97B05DD126680024314D8768282251
:10525000002102A809F064FF2B46019402E001340A
:10526000202C49D01A7A0C33002AF8D101A8FEF775
:10527000A7FC10B117B0BDE8F08FDDF80480002F57
:105280003FD0014628220CA809F04AFF0DF1080C76
:105290000DF1300EB7F800B0B7F80290D7F804A0BF
:1052A000BEE80F00ACE80F00BEE80F00ACE80F004E
:1052B0009EE803008CE80300D7E90323CDE9062329
:1052C000BB680CA902A8ADF808B0CDF80CA0ADF8E9
:1052D0000A90CDE904380CF0E4FE0C9B3360002802
:1052E000C8D104EB440405EB840253600123019907
:1052F000137245F82410BDE76FF08C0017B0BDE8BD
:10530000F08F6FF08000B5E76FF08000704700BF4E
:10531000E87F02300139022940D8012B3ED843688A
:105320002C2B3BD12DE9F04F00239146D0F8008083
:10533000C6688FB08168D8F82820D8E90245D9F826
:1053400004B00B96D0E904672046C9F80430D9F8B8
:1053500000A009920A91FFF76FFB10B10FB0BDE8F2
:10536000F08F20460CA9FFF78FFB0028F6D10A9991
:105370000B98CDE90271099BCDE905AB09F1040257
:1053800007920093049001960CA92A4603C908F1DC
:1053900018030CF0F5F90FB0BDE8F08F6FF0800046
:1053A000704700BF0139022940D8012B3ED843681D
:1053B0002C2B3BD12DE9F04F00239146D0F80080F3
:1053C000C6688FB08168D8F82820D8E90245D9F896
:1053D00004B00B96D0E904672046C9F80430D9F828
:1053E00000A009920A91FFF727FB10B10FB0BDE8AA
:1053F000F08F20460CA9FFF747FB0028F6D10A9949
:105400000B98CDE90271099BCDE905AB09F10402C6
:1054100007920093049001960CA92A4603C908F14B
:1054200018030CF025FA0FB0BDE8F08F6FF0800084
:10543000704700BF6FF08500704700BF6FF08500B8
:10544000704700BF6FF08500704700BF6FF08500A8
:10545000704700BF6FF08500704700BF6FF0850098
:10546000704700BF6FF08500704700BF6FF0850088
:10547000704700BF6FF08500704700BF6FF0850078
:10548000704700BF013901292ED8012B2CD8436861
:1054900084462C2B28D12DE9F047DCE90264D2E9BF
:1054A0000078036886B0D3E902A550469146FFF71D
:1054B000C3FA10B106B0BDE8F08750460DF1100AEE
:1054C0005146FFF7E1FA0028F4D1CDE9017809F15E
:1054D00004020392009433469AE803002A460BF034
:1054E000CDFE06B0BDE8F0876FF08000704700BFCA
:1054F000013902292BD853BB436802462C2B26D1F5
:105500002DE9F043D2E903450368866887B0D3E903
:1055100002974846D2F81480FFF78EFA10B107B010
:10552000BDE8F08348460DF110094946FFF7ACFA93
:105530000028F4D1CDE90045CDF80880334699E83C
:1055400003003A460BF0F4FE07B0BDE8F0836FF0BD
:1055500080007047013901292ED8012B2CD84368CF
:1055600084462C2B28D12DE9F047DCE90264D2E9EE
:105570000078036886B0D3E902A550469146FFF74C
:105580005BFA10B106B0BDE8F08750460DF1100A85
:105590005146FFF779FA0028F4D1CDE9017809F1F5
:1055A00004020392009433469AE803002A460BF063
:1055B0000BFF06B0BDE8F0876FF08000704700BFBA
:1055C000013902292BD853BB436802462C2B26D124
:1055D0002DE9F043D2E903450368866887B0D3E933
:1055E00002974846D2F81480FFF726FA10B107B0A8
:1055F000BDE8F08348460DF110094946FFF744FA2B
:105600000028F4D1CDE90045CDF80880334699E86B
:1056100003003A460BF024FF07B0BDE8F0836FF0BB
:10562000800070476FF08500704700BF6FF0850005
:10563000704700BF70B5002582B0012900952BD1BD
:10564000012B29D1844650681446042824D1DCF863
:1056500004302C2B20D1DCF800306A46196926680A
:10566000019101A9DD68FEF707FC044630B90C4B37
:10567000019A9D42326004D1009B1D60204602B019
:1056800070BD294600980CF032FB04460028F5D086
:105690003046FEF745FCF1E76FF08004EEE700BF0F
:1056A000000F00B001291FD1012B1DD14368844692
:1056B0002C2B19D130B550689646042883B016D1EA
:1056C0000024DCF8003001AA1969DEF800500194CA
:1056D000FEF766FC10B12C6003B030BD294601987E
:1056E0000CF0C6F903B030BD6FF0800070476FF06A
:1056F0008000F1E7012917D1B3B942682C2A13D1F0
:1057000010B50468042082B021690DEB00026469C1
:105710000193FEF745FC08B102B010BD2146019887
:105720000CF0AFF902B010BD6FF08000704700BF01
:105730002DE9F0410139012982B03FD8002B3DD13C
:1057400042682C2A3AD1009303688768D0F80C800D
:105750006A46042019699E88FEF722FC044658B95F
:10576000009D1B4B2A689A420AD043463A4631466E
:1057700028460CF0DBFA0446204602B0BDE8F08172
:1057800040F201239E421CD101A8FEF719FA0446FB
:105790000028F1D108F104063146012009F060FE2D
:1057A000286288B1042201A913F076FA286A4246D9
:1057B0003946043013F070FA6E62DDE76FF0800452
:1057C000DAE76FF08604D7E76FF08C04D4E700BF08
:1057D000000F00B001291CD1012B1AD843682C2BD3
:1057E00017D1944602680420002330B5DCE9004557
:1057F00083B011690DEB00020193FEF7D1FB08B1F4
:1058000003B030BD2A46214601980CF049F903B097
:1058100030BD6FF080007047012927D133BB42684B
:105820002C2A23D170B5026884B09468156920468B
:1058300096880193FFF700F908B104B070BD042009
:1058400029460DEB0002FEF7ABFB0028F5D102ADB7
:1058500029462046FFF718F90028EED195E80C00FC
:10586000314601980CF06BFA04B070BD6FF0800007
:10587000704700BF022940D1012B3ED143682C2B39
:105880003BD1C368142B38D1F0B5556893B0042DC3
:1058900051D10021036886681F69146808A828226E
:1058A000039109F03DFC3946284603AAFEF778FB30
:1058B00008B113B0F0BD05A8FFF7FAF80028F8D139
:1058C00004A8FEF77DF90028F3D13046049908AA10
:1058D000FFF77CF80028ECD103991D4B0A689A4227
:1058E0000ED008A806AA0CF089F9069921600028B4
:1058F000DFD10598FFF7F0F8DBE76FF08000704725
:10590000BDF822300733B3F5847F4FEAD3051AD2AE
:10591000D1E90802002301F14806CDE900651146EE
:105920001A4606F011FE48B92A46314608A806ABC9
:105930000BF0E3F8D9E76FF08000BAE7069B6FF051
:1059400092002360B5E7069B6FF08C002360B0E700
:10595000000F00B070B5012982B03BD1012B39D1C5
:10596000436884462C2B35D15068042832D100245A
:10597000DCF8003016681D690194294601AA3560DB
:10598000FEF70EFB68B9019C3560144B22689A4201
:105990000AD020460BF0E4FF0446A0B13046FEF7E3
:1059A000BFFA204602B070BD236A3BB10146626A6D
:1059B000184609F0B5FB206A09F058FD682200215D
:1059C000204609F0ADFB3046FEF7AAFA0446204611
:1059D00002B070BD6FF08004E3E700BF000F00B0BD
:1059E000013901292FD873BB42682C2A2BD12DE90C
:1059F000F04186B00393036885689C68C6682046BA
:105A0000D3F810809F88FFF717F810B106B0BDE8F3
:105A1000F0814146042003AAFEF7C2FA0028F5D11E
:105A20000DF1100820464146FFF72EF80028EDD171
:105A3000CDE90056394698E80C0003980CF0B2F90D
:105A400006B0BDE8F0816FF0800070470139012990
:105A50002FD8012B2DD8436884462C2B29D12DE932
:105A6000F047D2E90067DCE90258036886B0D3E961
:105A700002A450469146FEF7DFFF10B106B0BDE824
:105A8000F08750460DF1100A5146FEF7FDFF002841
:105A9000F4D1CDE9016709F104020392CDF8008049
:105AA0002B469AE8060020460CF09EFA06B0BDE8A8
:105AB000F0876FF080007047012908D1012B06D8CC
:105AC00043682C2B03D1D2E900010CF0BDB96FF073
:105AD000800070474FF4147330B50569ADF5297D2A
:105AE00004AA0393402D14AB02930092036A01951C
:105AF00027D8B3F5147F816838BF0393124B04464F
:105B0000196040682B46002109F002FB854215D13F
:105B100001236846194602AA00F03CFA054618B16E
:105B200028460DF5297D30BD60682946DDE9022350
:105B300009F0F0FA28460DF5297D30BD6FF0830598
:105B4000EEE76FF08605EBE768A1023030B593B061
:105B500000F00CFAC8B9304D4FF000414FF0FF3063
:105B600009F0D2FA10F0100437D183060ED506A939
:105B7000202009F0CBFA0699002908DA023144DB2B
:105B80002146079809F0C8FAE6E7FEE7FEE73DD1AF
:105B90000A9A01AB04930E9B042ACDF808D0039215
:105BA000059335D1042B33D1089A07982A606A46A9
:105BB00009F0AEFA0A9B98422AD1012304AA194699
:105BC00002A800F015FA04460028D9D1DDE9042323
:105BD0000146079809F09EFAD2E7102006A909F0BD
:105BE00095FA069B002B06DA02330DDB002107989D
:105BF00009F092FAB0E70AD106A8FFF76BFF014659
:105C0000079809F089FAA7E7FEE7FEE7FDE7FBE75B
:105C10006FF08604B4E700BF68A1023000232DE9CD
:105C2000F04742F2160A16461C46814688461E4F29
:105C300082B013603B88534523D17D883D442CB30B
:105C4000042221460DEB020013F026F8BDF80610E1
:105C5000346804310C440EE0042221460DEB0200AE
:105C600013F01AF8BDF8043013F47C6F10D0BDF8AF
:105C7000063004331C44A542EED8002002B0BDE833
:105C8000F0874FF0FF3002B0BDE8F087074CF2E735
:105C9000BDF8062003F03F0399453460A8F80020C2
:105CA000C8D10120EFE700BF6CA1023070A1023023
:105CB0002DE9F04FCBB007460E46154600F0C6F969
:105CC000044628B100F006FA20464BB0BDE8F08F3C
:105CD000024601466FF00603009610A800F04EFA47
:105CE0000446002848D0012844D00524EAE7002CC7
:105CF00000F0058158460022042113F053FE06A847
:105D000006F0FCFA306030B1069B32468A49736077
:105D100010A800F0C9FA06A806F0F8FA306030B111
:105D2000069B32468549736010A800F0BDFA122226
:105D300000230492012005AA0DF10E01CDE90633DE
:105D40000593FFF76BFF012840F0E080059BBDF84D
:105D50000E200433CDE90632794910A806AA00F0D6
:105D6000A3FA294610A800F047FA002800F0B580F1
:105D70000128BAD10224A5E73A46724910A800F0DA
:105D80007DFA204605AA04A9CDE906440594FFF74B
:105D900045FF012840F08480059B08AE043306933C
:105DA000BDF810300793684906AA10A800F066FAFB
:105DB000304600F0A9F90446002883D1634910A8B1
:105DC000324600F05BFA2023314605A8059306F021
:105DD000CBFA00286ED1059B5D4906AA10A807934F
:105DE000069600F04BFA304600F0C4FC044600284A
:105DF0007FF468AF32685749D31710A800F02EFA25
:105E000032460220346004A9FFF708FF012853D06E
:105E100006F070FA0246B2F5C24FBFF466AF002337
:105E20004D4910A800F01AFA10A800F015FA4FF02A
:105E300000088346DFF824A142F21602BAF80030C7
:105E4000934237D1BAF80290454BD14499457FF639
:105E50004EAF1F4604E0738804331F44B94518D978
:105E600039460422304612F017FF3388C3F38513F6
:105E70009845F0D10134012CB6F8029050D0043787
:105E8000C6F804903760092196E80C00584613F0D4
:105E9000EDFCB8F1060F3FF42AAF08F10108CBE79B
:105EA00008AE3146202006F039FA18B920230696AC
:105EB000079378E7032405E7BDF810203368022A2A
:105EC00003F1040114D0042A0ED0012A7FF40DAF8F
:105ED0001B790693BDF818209DE700F0FBF80446F7
:105EE00020464BB0BDE8F08F06A812F0D5FEF1E7D2
:105EF00005A812F0D1FEBDF814300693EAE701229E
:105F00000023184910A800F0A9F9F8E6314604A8C2
:105F100006F04AFA0028CDD1049BCDE906631BE7C1
:105F200058464FF0FF33104A13F07EFC04215846C8
:105F300013F00EFDA3E700BFFEDAFEFF08DBFEFF55
:105F400003DBFEFF00DBFEFF04DBFEFFFFDAFEFFEC
:105F500005DBFEFF07DBFEFF06DBFEFF6CA1023068
:105F600070A1023001DBFEFF02DBFEFF08B54FF43B
:105F700000720649012000F005FC052896BF044B7D
:105F80006FF0830053F8200008BD00BF6CA1023001
:105F90002481010C30B5D0E9005387B0402B144662
:105FA000D2E90012CDE90053CDE9021207D023F067
:105FB0001003202B03D06FF0860007B030BD002AFD
:105FC000F9D0684604AA02A9FFF772FE28B9DDE9F4
:105FD0000423C4E9002307B030BD052888BF6FF053
:105FE0008300EAD8014B53F82000E6E72481010C36
:105FF00010B500216FF00044036886B01B68CDE93E
:106000000214CDE90013D2E90041032905D9402B40
:1060100007D023F01003202B03D06FF0860006B0CA
:1060200010BD684604AA02A9FFF742FE18B9059BF5
:10603000236006B010BD052888BF6FF08300EED83E
:10604000014B53F82000EAE72481010C002370B5CE
:106050001C4DA6B02A68CDE90233CDE90933CDE95C
:106060000B33CDE90433CDE9063308930D932ABBF6
:10607000602108AA0DF107030EA806F0A3FA044652
:10608000E0B90899D1B14FF480569DF80730099ACC
:1060900043F4E243ADF80C300B4B03A8079302AB7B
:1060A000069612F0D1FE48B9084B02981A6828608B
:1060B0002AB94122064912F02DFF00B105242046DD
:1060C00026B070BD70A3023009060006B8A30230E6
:1060D00074A3023010B5054C206820B112F0DCFE2C
:1060E00008B9206010BD052010BD00BF70A30230AC
:1060F000044B1A68034612B100201A60704705204D
:10610000704700BF70A3023070B5174D04462A686F
:1061100082B032B12CB30020144BC4E9003202B07B
:1061200070BD134E01923368C3B1124901A812F039
:1061300015FF98B93268104901A812F031FF68B90B
:106140000A4E2B46202201A8711C12F04FFF28B9DD
:1061500001232A6833701A442A60DBE7032002B067
:1061600070BD0520DBE700BFE0A30230BCA3023016
:10617000B8A302300900000274A30230F0B59446BF
:106180000D4604461E4600F1A007C0E9265C83B018
:10619000482200213846ED0F08F0C2FFC4F8C06065
:1061A000C4F8D85001A8FFF7A3FFF8B90223019A59
:1061B000C4E93700C4E93420089A204606CA84F8A6
:1061C000C83013F019FB2146384600F083F8054625
:1061D00028B103280ED0192814BF03250125204615
:1061E000052113F0B5FB284603B0F0BD0E25284667
:1061F00003B0F0BD0425F2E770B5044682B00D4649
:106200000022052113F0CEFB214604F1A00000F08E
:10621000EBF840B1032816D0192814BF032301233B
:10622000184602B070BD6E462046314613F0FCFBA6
:1062300001280346F4D050B996E8030085E803002E
:10624000184602B070BD0423184602B070BD022388
:10625000184602B070BD00BF704700BF70B516464B
:1062600004461D460A46CB1713F0DEFA32462B468B
:106270002046BDE8704013F0D7BA00BF134670B592
:10628000D3E90065044682B00A46CB1713F0CCFA76
:1062900002212046CDE9006502AB13E90C0002B0F3
:1062A000BDE8704013F0E2BA134670B5D3E900655B
:1062B000044682B00A46CB1713F0B6FA03212046F3
:1062C000CDE9006502AB13E90C0002B0BDE87040F7
:1062D00013F0CCBA2DE9F0410446AAB0006A0E468C
:1062E00000F008F9002872D0A36B9A0769D5042141
:1062F000304613F02DFB18226B4604AD009401923A
:1063000093E806002846276A13F076FA0521284606
:1063100013F01EFB01220023284613F085FAFB1719
:106320003A46284613F080FA00220521284613F049
:1063300039FB284602A913F077FB0746002838D11D
:10634000029B039AA361E261002B4AD004F1180377
:1063500093E8030085E80300022195E80C0030462D
:1063600013F084FAA36BDB0736D4D4E90F8405213C
:10637000304613F0EDFA7CB1B8F1000F0CD0304686
:106380000422002313F050FACDE90484022195E899
:106390000C00304613F06AFA30460022052113F053
:1063A00001FB3046022113F0D3FA38462AB0BDE88B
:1063B000F08100230227C4E9063338462AB0BDE83D
:1063C000F08112220023304613F086FA8FE701276E
:1063D00038462AB0BDE8F0811C2738462AB0BDE80F
:1063E000F0810227E9E700BF40232DE9F0430C4686
:1063F0002025ADB00DEB03061CAA14AFCDE90E7538
:106400000C9202213246054620460D9313F0CAFA3B
:10641000A37B33B101231926237430462DB0BDE888
:10642000F083237C012B62D0002B40D1226862B321
:1064300008AF04970DF108080EA903C988E8030006
:1064400096E803008DE8030005F11802286A06CAE1
:1064500000F056F806460028DFD1AB6B0DF1280995
:10646000DB0729D599E8030012AB83E80300204637
:106470000CCB022113F0FAF920460022042113F07C
:1064800091FA30462DB0BDE8F0830BAB029305F1D5
:10649000300105F1280303C90A920CCB8DE80300F3
:1064A000286A00F0EBF80DF128090646DAE718260D
:1064B00030462DB0BDE8F083CDF8189004AA0CA9A1
:1064C00003C982E8030005F1280397E803000CCB19
:1064D00088E8030005F1300C9CE803008DE8030018
:1064E000286A00F091F80028BCD0064695E71926E6
:1064F00093E700BFC31D0CBF6FF00F000020704773
:106500002DE9F041BCB06F4687E8060030210AAAA9
:106510000292039102AA06CA3A4C804616A81E4669
:1065200013F06AF9042116A813F012FA204613F0AA
:1065300061FE0025CDE9084008AC032194E80C0079
:1065400016A813F093F997E8030084E803000221EA
:1065500094E80C0016A813F089F9CDE9085502213A
:1065600094E80C0016A813F081F9002E3AD1CDE979
:106570000866022194E80C0016A813F077F90125AB
:10658000042116A8002213F00DFA16A804A913F08E
:106590004BFA002832D118F1070F0CBF6FF00F0132
:1065A000002106A800F098F8C8B9059B5D1B38BF0C
:1065B0000546049B38BF2B46CDE9083506A894E86C
:1065C000060000F0A7F842AB93E8060006A800F02A
:1065D000A1F844AA469B06A806CA00F0A9F83CB058
:1065E000BDE8F08142AB93E8030084E803000B218F
:1065F00094E80C0016A813F039F9C1E715203CB057
:10660000BDE8F0813C81010C82B010B586B008A9CC
:10661000073081E80C0005D0012006B0BDE810402D
:1066200002B0704705A8DDE90E41DDE90C23CDE994
:106630000110009410490A9812F0EAFD70B110F1AF
:10664000950F14D010F1860FE6D010F18D0F10D0F9
:1066500010F1970F0CBF12201720DEE7059B109A50
:10666000C2E9004306B0BDE8104002B070470D20FB
:10667000D3E71020D1E700BF0906000682B010B5AD
:1066800086B008A9073081E80C0005D0012006B0CB
:10669000BDE8104002B0704700240A9801A9CDE976
:1066A0000144CDE90344059412F012FC28B12046C0
:1066B00006B0BDE8104002B070470020BDF80620CB
:1066C000D308520718BF01330C9A5B00136006B061
:1066D000BDE8104002B070474FF6FF72002310B5BE
:1066E0000B4C036011F1100F0CBF214611460446FC
:1066F00012F034FC606038B110F1860F05D010F153
:106700008A0F0CBF0520042010BD032010BD00BF60
:106710000900000210B582B002AB03E9060043682D
:1067200023B919B1044612F03BFC606002B010BD01
:1067300070B582B002AC04E90600426842B112F1C1
:10674000860F13D08A320CBF0520042002B070BD22
:106750001D46019A043304460E4612F047FC606061
:1067600002462E600028EAD102B070BD032002B0BC
:1067700070BD00BF0346024A002012681A607047CD
:1067800068A1023008B512F05BFB003818BF012089
:1067900008BD00BFF0B5134C89B02369082B1ED18A
:1067A000266A0C2E1BD10021606802AA08F0B0FCFA
:1067B000082814D1DDE9022305AFA068009700F096
:1067C00035FA054610B1284609B0F0BD01463346FA
:1067D00060683A4608F09EFC284609B0F0BD6FF0AC
:1067E0008005F0E768AE023070B5144C88B02369BC
:1067F000082B1ED16569042D1BD10021606806AAF3
:10680000266A08F085FC082813D12B460121606810
:1068100004AA08F07DFC04280BD1049B05AACDE94D
:1068200001620093A068DDE9062300F09FF908B03B
:1068300070BD6FF0800008B070BD00BF68AE023060
:1068400070B5134C86B02369082B1CD1A569042DA3
:1068500019D10021606804AA666908F059FC08286B
:1068600011D12B460221606803AA08F051FC0428CC
:1068700009D1039BA068CDE90063DDE9042300F0A2
:1068800011F906B070BD6FF0800006B070BD00BF9A
:1068900068AE023010B582B000F086F8002866D1EC
:1068A000364C4FF000414FF0FF3008F02DFCC3068E
:1068B0000FD52146102008F029FC0028F1D12368CB
:1068C000002B1ADA023315DB0146606808F024FC5D
:1068D000E7E7810619D4420628D403060AD52146E3
:1068E000802008F013FC0028DBD1216800292EDA73
:1068F0000231E9DA08F012FCD3E7FBD1FFF7A0FF81
:106900000146606808F008FCCBE72146202008F02B
:10691000FDFB0028C5D12368002BD3DBEAD1FFF7AC
:1069200063FF0146606808F0F7FBBAE721464020A4
:1069300008F0ECFB0028B4D12368002BC2DBD9D1CE
:10694000FFF728FF0146606808F0E6FBA9E7D1D110
:106950002369082B0ED16A46606808F0D9FB082825
:1069600008D1DDE90023A06800F098F9ACE708F051
:10697000D5FB95E76FF08001A7E700BF68AE023056
:10698000024603480B464068012108F0C1BB00BF26
:1069900068AE0230024603480B464068002108F00A
:1069A000B9BB00BF68AE023070B5384B86B09D6A87
:1069B000A8470369082B66D1A847354C8368238113
:1069C000A84703461B7D6846237505F069FC00282F
:1069D00059D121899DF80830019A13FB01F39BB22C
:1069E000B2FBF3F2009963816160A281A847036959
:1069F000082B48D1A847274E83683381A847034610
:106A00001B7D03A8337505F039FC00283BD1318983
:106A10009DF81430049A13FB01F39BB22146B2FB9C
:106A2000F3F403981C4A70601C487381B48100F031
:106A300035FA08B106B070BD184800F071FAB0B967
:106A4000154A1449164800F029FA0028F2D11448D2
:106A500000F066FA0028EDD0114800F07FFA002817
:106A6000E8D10F4806B0BDE8704000F059BA0B48B5
:106A700000F074FA0028DDD1084800F051FA00282F
:106A8000DED006B070BD6FF08000D3E760E8010C87
:106A9000603C0230783C02304881010CB8AE0230D4
:106AA000D0AE02302DE9F04752EA030188B0DDE9AB
:106AB00010544BD034F0070645D10746CDE9050206
:106AC00005A904222348079312F0E6F8082206A934
:106AD000214812F0E1F8214A214B1E49B7F5807F89
:106AE0000CBF904698461F4F40463A4600F038FA91
:106AF00018B310F18C0F1DD11B4FDFF8589044F4E0
:106B0000403A01E02D1B15D0202D2C4628BF202413
:106B100038462146FFF734FF524601962B46494638
:106B200040460297009400F03FFA2AF4403A264487
:106B30000028E7D008B0BDE8F087BB68DB07DBD5ED
:106B40006FF08400F6E76FF08500F3E76FF08600E2
:106B5000F0E700BFE8AE0230ECAE0230D0AE02305B
:106B6000B8AE0230F4AE023098AE023011462DE9D4
:106B7000F04751EA030286B00E9F48D00446CDE9A3
:106B80000301042203A92348059312F085F8082283
:106B900004A9214812F080F8204A214B214EB4F577
:106BA000807F0CBF904698461A493246404600F016
:106BB000D7F9054638BB3668BE4228D30F9BF61B73
:106BC0009E4228BF1E46109BDFF85C90DFF844A071
:106BD0001E6005E021464846FFF7DCFE361B12D05A
:106BE000202E344628BF20243B46514640462246AC
:106BF000CDF8009000F0E8FA274405460028E9D0D7
:106C00000023109A1360284606B0BDE8F0876FF0A5
:106C10008605F8E7E8AE0230ECAE0230D0AE0230C6
:106C2000B8AE0230F4AE023098AE0230114670B504
:106C300051EA030284B0089D22D00422CDE901016B
:106C400004460DEB02011048039312F025F80822C8
:106C50000E480DEB020112F01FF80D4E0D480E4BC1
:106C60003246B4F5807F18BF1846074900F078F91E
:106C700020B93368B268C5E90033AA6004B070BDBA
:106C80006FF08600FAE700BFE8AE0230ECAE0230EB
:106C9000F4AE0230D0AE0230B8AE023070B5144659
:106CA00054EA030284B026D00422CDE901040DEB9E
:106CB000020105461348039311F0EEFF0822124823
:106CC0000DEB020111F0E8FF104C114B114EB5F520
:106CD000807F18BF1C46324620460A4900F040F922
:106CE00058B9B368DB070AD42046064904B0BDE8AA
:106CF000704000F059BA6FF0860004B070BD6FF0BC
:106D00008400FAE7E8AE0230ECAE0230D0AE0230DA
:106D1000B8AE0230F4AE023008B503461B6800205E
:106D20009B689847002818BF6FF0910008BD00BF0E
:106D3000844610B58E46DCF80440408923440EFB9F
:106D40000030DCF8003011465B69029A9847002851
:106D500018BF6FF0910010BD844610B58E46DCF868
:106D60000440408923440EFB0030DCF8003011461B
:106D70009B69029A9847002818BF6FF0910010BDD8
:106D8000002070474389BBB170B504460E4600250C
:106D900004E0228963891544AB420BD9D4E9002071
:106DA00003FB0600D369284498470028F1D06FF010
:106DB000910070BD002070BD002070472DE9F04F9C
:106DC00003688BB002AA04460D465F8900F0C8FC38
:106DD00010B10BB0BDE8F08F07A800F08DFF0146A1
:106DE000002857D1DDE90268202202A8DDF81490BE
:106DF00008F096F92946204602AA00F091FE0028E4
:106E0000E7D123685B8A63B3834682460CE0594628
:106E1000204602AA00F084FE0028DAD123685B8AAB
:106E20000BF1010B5B451DD95D45F9D05946204654
:106E300002AA00F095FC0028CBD1029BB342E6D118
:106E400007A800F059FF0028E1D1039B4345DED994
:106E50009F4228BF1F46A3EB09030393059B9A4457
:106E6000D5E79A463B464A4631462046CDF804A02F
:106E7000CDF8008000F0D6F90028AAD136B120461E
:106E800000F098FE10B16FF08300A2E7204600F0FA
:106E900033FC9EE76FF08B009BE700BFF8B5C0B3F3
:106EA0000C46B1B31646A2B38B890546012B49891E
:106EB000208A628A1CD9032B25D0022B2DD15301A5
:106EC0001033A1F10802D21A904294BF00276FF04C
:106ED000860781421DD308338B421AD837B918224E
:106EE0003946284608F01CF9C5E900463846F8BD81
:106EF0006FF0860781420AD26FF086075200023B8C
:106F000013441B01E7E78142F6D36FF08607520076
:106F1000F5E76FF086073846F8BD0027EAE700BFBF
:106F200030B583B0054600F0B1FB044610B12046F1
:106F300003B030BD4FF08071284601AA00F040FB3D
:106F400030B110F18C0F18BF0446204603B030BD9D
:106F500028460199FFF732FF0446E8E700F00EBD2E
:106F600070B58AB0144601AA05460E4600F0C2FA72
:106F7000B0B92846019902AA00F0F2FB08B10AB0A4
:106F800070BD0C22304607A911F06CFE40B9DDE956
:106F90000421BDF81830C4E90021A3600AB070BD17
:106FA0006FF08B00EBE700BF2DE9F0434FF6FF7564
:106FB00093B012F07F4FCDE904551B9E40F0ED8059
:106FC00017460268013BD28904461344524202EA42
:106FD000030904AA884600F08DFA002800F09D807D
:106FE00010F18C0F40F08E80FB0340F1D980059AA0
:106FF0004FF6FF739A4240F0A18023681B8A4B45ED
:10700000C0F0CB8004980097821A0AA806AF0290BD
:1070100005A818BF012201904B4641462046039720
:1070200000F016FC00286DD11A9B002B33D023688A
:10703000DA89531E33426DD11A9B03F1FF380C9B42
:1070400090449E42C2F1000208EA020862D8424619
:1070500031460D9800F044FE00285BD11C9B394658
:10706000CDE90083204633460AAA00F04FF90028F4
:1070700050D11A9A0C9B16449E420A99204688BF0A
:107080000C96069E00F030FA0346314620460A9AD6
:10709000069300F041FD3A4620460A9900F0C4FDEF
:1070A000002837D1059920460AAA00F039FD01468B
:1070B00080BBDDE904639E4228BF1E46204632465F
:1070C00000F0D2F930BB4FF6FF72049B934202D01E
:1070D000059A934245D1236820465A8A711C00F0D4
:1070E000C3F9B8B90A9B83B91A9B73B1204600F063
:1070F00003FB38B94FF6FF730499994202D0059B00
:10710000994228D113B0BDE8F083204600F052FD2B
:107110000028EBD06FF08300F4E7204604990AAA18
:1071200000F01EFB00283BD1BA0311D50D9B4B4547
:1071300026D1049A0C900E97059259E706AF3A466D
:1071400020460A9900F052FB00283FF46DAFE1E7BA
:10715000049A05924CE72046FFF730FE13B0BDE8D5
:10716000F0839A4238BF1A462046711C00F07CF921
:107170000028CFD1DDE904639E4238BF1E46AAE74E
:107180000E9B204643F0807304990AAA0E9300F0E8
:10719000C7FC00283FF42BAFBCE76FF08600B1E7D7
:1071A0006FF08B00AEE700BF10B582B001AA0446B5
:1071B00000F0A0F928B920460199FFF7FFFD02B0C1
:1071C00010BD6FF08B00FAE7F0B58DB0164603AA3C
:1071D00004461D460F4600F08DF900BB204603997A
:1071E00004AA00F0BDFAB8B938460C2209A911F07A
:1071F00039FDA0B932462946069800F071FD08B164
:107200000DB0F0BD2046129C33462A4604A90094D6
:1072100000F05AF80028F3D06FF08300F0E76FF029
:107220008B00EDE72DE9F04186B0174602AA05462E
:1072300098460E4600F0DAFA044618B1204606B029
:10724000BDE8F081049C31463C442846049400F09B
:107250004BF90D9B074623BB039A0C9B9A4208D21D
:107260009B1A019339462846029B009200F070FC5D
:1072700008BB32462846029900F04EFC31462846AB
:1072800002AA029700F0D0FC0446B8B9002ED5D06F
:10729000D5E90003DB6898470446204606B0BDE800
:1072A000F0810146CDE900832846029B0C9A00F04C
:1072B0004FFC0028D0D06FF08304BFE73246394638
:1072C000284600F029FCB9E72DE9F04184B090464A
:1072D0000C466A46096805461E460A9F00F086FA73
:1072E00070B900994B1C0BD00A966368D5E900046D
:1072F00064683A46A446434404B0BDE8F0416047A0
:107300006FF0830004B0BDE8F08100BF2DE9F047C5
:107310000F4682B011681646DDE90A981C460546FC
:1073200000F0E2F8824673687A681C44A31A00925F
:107330000193284651463B6800F00AFC48B9CDF855
:1073400000906968234642468C6828685146A047E9
:1073500010B102B0BDE8F087F06872682B68024493
:107360005B890092B86851461B1A9B1A0193284604
:107370003B6800F0EDFB0028EBD13368002BE8D030
:10738000D5E90003DB6802B0BDE8F047184700BF4D
:10739000F0B508270446002387B0009740681946D7
:1073A00045680DEB07022068A847B8B99DF80C6046
:1073B000012E13D1054620689DF80D20037D9A42C9
:1073C0000DD00097636831465F6804AA2B46B84722
:1073D00020B30020C4E9045607B0F0BD2068082699
:1073E00065680096002301216D6804AAA84748B982
:1073F0009DF81450012D05D123689DF815201B7DA3
:107400009A4209D16FF0830007B0F0BD002B14BF82
:1074100002260126B24212D00646DAE79DF8145041
:10742000012D1FD123689DF815101B7D994218D09E
:10743000B3FA83F35B098B429DF80D20E6D09A42A4
:1074400006D08A4233BF0125002501260026C0E769
:10745000002A14BF022301238B42F2D0012600250B
:10746000B7E72E460546B4E72DE9F0470646006823
:10747000551A8389C2B0022B08BF4FF00009D6E924
:10748000047818BFA3F1030909EB41094FEA091970
:107490006D0109F118090ED121E0706800944B4686
:1074A000D0F808A04146306802AAD047A14498B954
:1074B0002D1B14D03068B5F5807F2C4628BF4FF4C3
:1074C0008074D6F804C000944B463946DCF804A01A
:1074D00002AAD0470028E0D042B0BDE8F0870020E3
:1074E00042B0BDE8F08700BF09B1806870474069CD
:1074F000704700BF2DE9F043044600688BB0438A13
:10750000002B50D00E4690460025202783896168C5
:10751000022B0CBF0023033B03EB450300971B0129
:10752000D1F8049002AA21691833C84720B16FF03E
:1075300083000BB0BDE8F0832368029A9B89022B7D
:107540000CBF0123023B9342F1D907A800F0D4FB02
:10755000F0B92068059A038A9A42E8D8049B9A42B7
:10756000E5D3029B23BBB0F80CC0B0F812E0BCF12D
:10757000020F18BFACF1030303EB4E0303991B0189
:1075800018339942D3D3408900F0AAFB0028CED10A
:107590000C22314607A811F065FB58B1206801356F
:1075A000438AAB42B2D86FF08B000BB0BDE8F083DA
:1075B0000399E8E7C8F800500BB0BDE8F08300BFBE
:1075C0002DE9F043044600688BB0438A002B4FD06E
:1075D0000E4690460025202783896168022B0CBF48
:1075E0000023033B03EB450300971B01D1F80490F4
:1075F00002AA21691833C847814628B16FF0830970
:1076000048460BB0BDE8F0832368029A9B89022BA1
:107610000CBF0123023B9A42F0D207A800F06CFB9A
:10762000F0B92068059A038A9A42E7D8049B9A42E7
:10763000E4D3029B13BBB0F80CC0B0F812E0BCF16D
:10764000020F18BFACF1030303EB4E0303991B01B8
:1076500018339942D2D3408900F042FB0028CDD1A3
:10766000069B1E420CD120680135438AAB42B3D839
:107670006FF08B0948460BB0BDE8F0830399EAE749
:107680004846C8F800500BB0BDE8F08370B504461A
:10769000D0E9000382B01B68984708B102B070BD02
:1076A0002046FFF775FE034610BB08266568216972
:1076B000206800966D68A219A847C8B9237B012BE2
:1076C00016D12068627B037D9A4211D0636861699C
:1076D0001B6998470028E1D123689A89022ADDD9DD
:1076E00018466268A168136902B0BDE87040184787
:1076F0006FF0830002B070BD70B504460826427B6F
:107700000068531CDBB26373017D6568994208BF52
:10771000023282B008BF6273616900960023AD68CF
:10772000A219A84720B9D4E90003DB68984708B13B
:1077300002B070BD6368D4E904121B692068C4E913
:10774000042198470028F3D123689A89022AEFD9A7
:1077500018466268A168136902B0BDE87040184716
:1077600070B504460068154683896268022B0CBF19
:107770000023033B03EB4103202182B000911B0156
:10778000566821692A461833B047064638BB236835
:107790002A689B89022B0CBF0123023B934221D90B
:1077A00005F1140000F0A8FAC8B92068EA68038A55
:1077B0009A4217D8AB689A4214D3D5E9003153B92D
:1077C0008489458A022C18BFE31E03EB45031B0185
:1077D0001833994206D3408900F082FA10B9304636
:1077E00002B070BD6FF09706F9E700BF70B51025C5
:1077F00082B000950B01416804464E680833016968
:1078000000681546B04788B9236829689A8991426B
:107810001AD2D5E90112588900F062FAA0B9D5E967
:107820000032012B04D903469A420DD102B070BD3B
:1078300021688B89498A022B0CBF0346033B03EB6B
:1078400041031B011833EFE76FF09700EEE700BF2D
:107850002DE9F04F8BB0054600264FF010098B46FE
:1078600092469846179C006817E02868226883892A
:107870009A427DD2D4E90112408900F031FA0746DC
:10788000E8B9D4E90032012B3BD9034628689A4273
:107890006ED1A368984550D901368389022B0CBF5D
:1078A0000123023B9E4245D269683301CDF8009026
:1078B0004F68224629690833B8470028D5D06FF0B1
:1078C00083072868438A93B10024564621462846F8
:1078D00002AAFFF745FF50B907A800F00DFA08B15A
:1078E000DEB901262B6801345B8A9C42EED36FF02F
:1078F0008D074FF6FF733846159A13600BB0BDE83D
:10790000F08F28688389418A022B0CBF3B46033BDA
:1079100003EB41031B011833B9E7159B1C6057BBF0
:107920004FF6FF739C4208BF6FF08D0738460BB0CF
:10793000BDE8F08F6FF08D07C4E7169A59461660C0
:107940004289D31A169A53601346C2F80C8003F189
:1079500014000C2211F0A0F9169B149A28681A61E1
:107960000023169A9360A368A3EB0803A360A9E71A
:107970006FF08307A6E76FF08D07D7E72DE9F04199
:107980008EB00446FFF704FD002879D1666963686C
:1079900031461B6920689847054600286CD1D4E918
:1079A0000003B6FA86F11B69490998470546002885
:1079B00062D12068037DB3FA83F35B096373838923
:1079C000022B5FD101210B462173428A2561A16000
:1079D000616103EB42031B0142890833D21ACDE9EE
:1079E00003321022636800929D68002108230291EF
:1079F0000DEB03020121A847054600283CD1206871
:107A00000395438904938389022B12D02E46033BAE
:107A10009E4206F1030106F101065ED263681B690E
:107A200098470246206815438389022BEFD1002D29
:107A300050D12022002106A807F072FB2068438A5B
:107A40004BB30025202603E02068438AAB4222D9AD
:107A500083896168022B0CBF0023033B03EB4503C2
:107A600000961B018F6806AA616918330135B84773
:107A70000028E9D06FF0830528460EB0BDE8F081FC
:107A8000002684E7012102222173A2602561428A37
:107A9000023B61619DE70826627B6568531CDBB28F
:107AA0006373017D994204BF02326273616900967B
:107AB0000023AD68A219A8470028DBD1D4E9000350
:107AC000DB68984705460028D6D1D4E90423C4E9E9
:107AD0000432D1E76FF09105CEE7002DFAD11826D8
:107AE0004FF0100810E09542A3D26168CDF80080F5
:107AF00033468F6802AA6169CDF808C0B8470135DE
:107B000010360028B6D12068838905F1030C022BBA
:107B1000A3F10302E7D18CE702B18160704700BF97
:107B20008446006830B583892025022B0CBF0023D2
:107B3000033B83B0DCF8044003EB41031B01DCF89A
:107B400014100095A4681833A04703B030BD00BFDF
:107B50002DE9F04FC3B0DDE94C863EB305468A46B9
:107B6000174699460CE0686800943B46D0F808B088
:107B70005146286802AAD8472744A0B9361B15D019
:107B8000B6F5807F344628BF4FF48074D5F804C022
:107B90002868009443464946DCF804B002AAD84756
:107BA000A0440028DFD043B0BDE8F08F002043B0F0
:107BB000BDE8F08F1021082330B587B000914168EF
:107BC00004464D680DEB030201690068A84730BB0D
:107BD000236802999A89914223D2DDE903125889D8
:107BE00000F07EF8E8B9DDE90232012B09D82368FC
:107BF000598A9B89022B18BFD81E00EB4100000157
:107C0000183082420DD12168049B49892046C91A47
:107C1000891A2369CDE900216169FFF799FF07B04F
:107C200030BD6FF09700FAE72DE9F04304460E46A9
:107C300087B001BB436841691020116000909D68C6
:107C400020680823A847002844D1D4E90487236882
:107C500032019B891832022B0CBF0025DD1EAD1BA3
:107C60002D01434639462046CDE90025FFF770FF38
:107C700007B0BDE8F0834FF0100947680D01416976
:107C80000068CDF80090BF6805F10803B8470146C9
:107C900000BBD4E90487204602AAFFF7A7FDC8B9B4
:107CA000CDF8009063686169D3F8089020680823D4
:107CB00002AA0297C84768B9012EC8D01822103D01
:107CC00043463946204601950092FFF741FF0028C0
:107CD000BDD0CDE76FF0830007B0BDE8F08300BFF3
:107CE000814206D8401A904234BF6FF086000020CF
:107CF00070476FF0860070470278D2B94378C3B9F5
:107D00008278B2B9C378A3B9027992B9437983B9B9
:107D1000827972B9C37963B9027A52B9437A43B9A5
:107D2000837A33B9C37A002B0CBF6FF08B0000202D
:107D300070470020704700BF70B5B2B004F058FB28
:107D4000002840F03281A34D4FF000414FF0FF304A
:107D500007F0DAF910F010040DD0102022A907F076
:107D6000D5F9229B002B4EDA02335DDB00212398EC
:107D700007F0D2F9E8E710F0200658D1430653D5B2
:107D8000402022A907F0C2F9229B002BECDB03D094
:107D9000A3F2F232012A47D80021299A8DF818104F
:107DA000002A40F00781289A002A40F00981279A8A
:107DB000002A40F00B81269C641A18BF01242D9ADA
:107DC000002A40F0F9802C9A002A40F0F7802B9A84
:107DD000002A40F0FD802A9A161E18BF012640F2A4
:107DE000F232934200F08F8040F2F332934205D199
:107DF000269B042B02D1012C00F0B880012123988E
:107E000007F08AF9A0E703D0A3F2F233012B0BD8D5
:107E100005F0E0F8044600286BD100F0A5F92146F2
:107E2000239807F079F98FE707F078F98CE720209D
:107E300006A907F06BF9069B002B06DA0233F3DB89
:107E40002146079807F068F97EE703D0A3F2F233E2
:107E5000012BE9D800243C22214613A8CDE9024495
:107E6000CDE90444129407F05BF93C22214623A893
:107E7000229407F055F90D9B0194002B40F0988057
:107E80000C9B002B40F09E800B9B002B40F09C80B5
:107E90000A9C003C18BF0124DDE9103213430F9AFD
:107EA00013432BD10E9E631E2EBB012B26D8042319
:107EB000002107980DEB030207F02AF9042852D19C
:107EC000022C4DD00021002E00F095800E9B402BFF
:107ED00049D8059304AA22AB0198049300F048F90D
:107EE000DDE9042304460021079807F013F9214631
:107EF00005E0012493E7012B40F2838001210798DC
:107F000007F00AF920E7269B0021239812AA07F020
:107F1000FFF8269B042B7FF471AF012C7FF46EAF2A
:107F2000012E7FF46BAF129802283FF667AF55F829
:107F30002020249B93427FF461AF002B3FF45EAF7F
:107F40002A9906AA04F094FA044600287FF456AF52
:107F500001462A9B239806AA07F0DCF821464EE743
:107F60000B9B402B38D96FF08001C8E7002E7FF4BF
:107F700045AF3146239812AA07F0CAF8269B9842CB
:107F80007FF43CAF129802283FF638AF55F8202016
:107F9000249B93427FF432AF002B3FF42FAF04F0C9
:107FA000B3FA011E18BF012129E707F0B7F8CAE6A6
:107FB000042471E7042402E7042610E703260EE7F1
:107FC0000324FCE6032467E7022465E70224F6E6BF
:107FD000022604E75C81010C12AA0121079807F030
:107FE00097F80B9A9042BED112AB0390029302A96C
:107FF000002E7FF46BAF3246019800F0B9F80146CD
:108000007DE7012653E700BFC14D010C694E010C0D
:10801000114C010C994C010C194B010C2D4D010C0C
:10802000214F010CB14F010C4150010CD550010CF6
:10803000F945010C3D46010CCD43010C2D44010CCA
:108040007944010CE544010C4545010CA145010CA6
:10805000FD48010C6949010C7146010CFD46010CFB
:108060008947010CD547010C4148010CA148010C7E
:10807000F542010C6143010CA940010C3141010C96
:10808000F53F010C5540010CB941010C2142010C96
:108090009142010C1553010CA553010C3554010CF0
:1080A0003D54010C5554010C5D54010C6554010CF8
:1080B0007554010C6D54010C4D54010C7D54010C90
:1080C0004554010C8554010CF154010C5555010C1B
:1080D000C155010C2556010C2D56010C3556010CCD
:1080E000A556010CF556010C3157010C1958010C1D
:1080F000E159010CD557010C7558010C5559010C6B
:108100004D5A010CB95A010C2552010C094B010CB6
:10811000114B010C48000000CC0100007C01000064
:10812000680000000000000070FFFFFF76FFFFFF07
:108130007CFFFFFF79FFFFFF7CFFFFFF5369676E46
:108140006174757265310000196D010C316D010C9F
:10815000596D010C816D010C856D010C0001000051
:10816000000100000001000008B504F075F800BF30
:108170000320704720000000A9B454B26D6F90A492
:10818000EA31193564CBA91FEC6F9A002A7DC050E3
:108190004B92A1937134585F120000000000000060
:1081A00070B5144C88B02369082B1FD1226A0C2AA1
:1081B0001CD10021606802AA06F0AAFF236983424D
:1081C00014D1DDE9022305AEA068009600F05CF949
:1081D000054610B1284608B070BD014632466068B9
:1081E000236A06F097FF284608B070BD6FF080053F
:1081F000F0E700BF2010023010B5154C88B023699D
:10820000082B20D16269042A1DD10021606806AACA
:1082100006F07EFF2369834215D1636901216068FE
:1082200004AA06F075FF636983420CD1226A049B9D
:1082300005A9CDE901210093A068DDE9062300F03E
:108240000FF908B010BD6FF0800008B010BD00BF7E
:108250002010023030B5144C87B02369A568082B74
:108260001ED1A269042A1BD10021606804AA06F06D
:108270004FFF2369834213D1A3690221606803AAD7
:1082800006F046FFA36983420AD1039A6369284630
:10829000CDE90032DDE9042300F0CAF807B030BDB3
:1082A0006FF0800007B030BD20100230F0B583B011
:1082B00000F0B0F8002840F08580474C4FF00041B6
:1082C0004FF0FF3006F020FF10F010050DD02146D2
:1082D000102006F01BFF2368002B1EDA023319DB87
:1082E0000021606806F018FFE8E710F020061CD1B6
:1082F00010F0400528D110F0800647D1C30509D5FC
:1083000021464FF4807006F001FF2568002D2ADA1F
:108310000235E5DA06F002FFD0E7FBD1FFF79AFF5E
:108320000146606806F0F8FEC8E72146202006F006
:10833000EDFE2368002BD1DBECD1FFF75DFF01469A
:10834000606806F0E9FEB9E72146402006F0DEFE4F
:108350002368002BC2DBDDD1FFF722FF01466068F6
:1083600006F0DAFEAAE7D5D1266A042E30D100F055
:10837000ADF8074633466A4629466068009706F01E
:10838000C9FE2946606806F0C7FE97E721468020AF
:1083900006F0BCFE2168002902DA0231A0DAB9E752
:1083A000B8D12369082B10D16A46606806F0B0FE88
:1083B0002369984209D1DDE90023A06800F072F832
:1083C0000146DFE706F0AAFE77E76FF08001D9E704
:1083D0006FF08005D5E700BF2010023010B50C46C5
:1083E000064B024601215868234606F091FE84425E
:1083F00014BF6FF08000002010BD00BF20100230BD
:10840000024603480B464068002106F083BE00BFC9
:108410002010023008B500F05BF800B908BD00F08C
:10842000CBF90028FAD1BDE8084000F051B800BFF0
:108430001946944610B4DDE9014302465CEA0100A6
:108440000AD033F0070003D1604610BC00F094B8A6
:108450006FF0850010BC70476FF08600FAE700BF30
:108460001946944630B40246DDE902345CEA010064
:10847000049D05D003950294604630BC00F036B8E8
:108480006FF0860030BC70471946944602465CEA9D
:108490000100009B02D0604600F00EB96FF086002C
:1084A000704700BF194608B552EA0103944609D047
:1084B0000246604600F036F910F1950F08BF6FF0E4
:1084C000830008BD6FF0860008BD00BF0020704724
:1084D00010B5044C04F1340000F03CFA024B0C34AB
:1084E0005C6010BD58100230501002302DE9F0438E
:1084F000DFF87C90984683B04B4606460D461746FB
:1085000000F028FC20B10446204603B0BDE8F0830B
:108510000C232946174D00933A4630462B4600F06F
:108520005DFD0446B8B92946D9F8000000F0A2FE66
:10853000044680B9AE6A464517D30A9BA6EB0806E7
:108540009E4228BF1E4605F1340031464044FFF7E5
:1085500057FF0B9B1E6040F634020021054806F0D1
:10856000DFFD204603B0BDE8F0836FF08604F2E73C
:1085700050100230581002302DE9F04F85B0DDF870
:108580003890B9F5006F7CD8DFF820A198465346A3
:1085900006460D46174600F0DDFB044600284CD089
:1085A00010F18C0F09D040F634020021404806F04B
:1085B000B7FD204605B0BDE8F08F00230222DFF8AA
:1085C000F0B0CDE90223194640F63402584606F0D1
:1085D000A7FDCBE90B9849463648FFF7FFFE044656
:1085E0000028E0D102983149CBF8289000F05EFADB
:1085F00004460028D7D10C233A460093304629463A
:108600002B4B00F0EBFC04460028CCD12849DAF8CB
:10861000000000F07BFE04460028C4D13A463046F4
:108620002946224B00F0B2FA0446002837D1039BBA
:1086300053BB00F0C9FC0446B5E70C23DFF870B06B
:1086400000933A465B463046294600F0C7FC044694
:108650000028A8D15946DAF8000000F00BFE0446C5
:108660000028A0D1DBF83020D10707D401230293E2
:10867000DAF80030CBE90B980393ACE76FF0840491
:1086800091E76FF0860494E700F09EFC0446002812
:1086900089D10146039810F0F7FE044683E70021D4
:1086A000DAF8000010F0F0FE7DE700BF5010023055
:1086B000581002308C1002302DE9F043DFF85C8056
:1086C0001F4683B0434606460D46914600F042FBE6
:1086D00020B10446204603B0BDE8F0830C232946B0
:1086E0000F4D00934A4630462B4600F077FC044677
:1086F00050B92946D8F8000000F0BCFD044618B96E
:108700002A6BAB6AC7E9013240F634020021044803
:1087100006F006FD204603B0BDE8F083501002309D
:10872000581002302DE9F043214F83B03B460646F6
:108730000D46904600F00EFB20B10446204603B0E3
:10874000BDE8F0830C23DFF86C90009342464B4663
:108750003046294600F042FC044680B94946386854
:1087600000F088FD044650B9D9F83030DB0710D44A
:1087700042463046294600F081FB044660B140F68F
:10878000340200210B4806F0CBFC204603B0BDE8C4
:10879000F0836FF08404F2E73D6800F015FC0446B6
:1087A0000028ECD10146284610F06EFE0446E6E7AC
:1087B000501002305810023000F0B8B8002310B545
:1087C00082B0044601A90120019300F0F1FD30BB05
:1087D000019B9C4205D80BE0019B0133A34201930E
:1087E00006D2012000F0F0FD0028F5D002B010BD47
:1087F000022001A900F0DCFD88B9019B9C4207D84A
:10880000002002B010BD019B0133A3420193F7D2B7
:10881000022000F0D9FD0028F5D002B010BD6FF0A5
:108820008300E3E770B5054651F82560DCB0CB68FE
:108830004FF4B4720C4601A806F128015B9310F0C6
:108840002BFA4FF4B672304601A900F0F1FCA8B142
:10885000236923B901232C4423725CB070BD3046D8
:108860004FF4B67201A95B9300F0E2FC002814BF3C
:10887000012303232C4423725CB070BD02236019D2
:1088800003725CB070BD00BF002070B5DEB0029016
:1088900000F09AFD044610B120465EB070BD02A9FA
:1088A00000F086FD04460028F6D110211D4800F096
:1088B000B9FB04460028EFD11B4D029C284600F06E
:1088C00005FC4FF4B47205F1280103A85D9410F083
:1088D000E3F94FF4B672284603A900F083FC04467E
:1088E000E0B900F0DFFB04460028D5D195F891618E
:1088F00000902B464FF4C8720021701C10F044FD0C
:1089000004460028C8D195F89031029885F8913135
:1089100085F89061FFF752FF0446BDE700F0C2FB07
:10892000BAE700BF001002309018023010B5084CB2
:108930004FF4CC722046002106F0F2FB0123A4F88C
:10894000903184F82830BDE81040FFF79DBF00BF8C
:1089500090180230002270B5524E88B002AD0490DB
:108960004FF4C87301200021CDE90065CDE906224E
:108970000396ADF8142010F02FFD10B101238DF8EF
:10898000143004994FF4C873CDE900150022022079
:10899000002110F021FD10B101238DF815301021B8
:1089A000414800F03FFB044610B1204608B070BDBE
:1089B00006A900F0FDFC044610B100F073FBF4E7DB
:1089C0002946012000F0F4FC04460028F5D10220DD
:1089D00007A900F0EDFC04460028EED1079A029B9F
:1089E0009A429DF8143018BF0790012B51D19DF881
:1089F0001530012B48D100F055FB04460028D4D196
:108A0000039B049993F82830012B1CBF01238DF898
:108A1000143091F82830012B1CBF01238DF815303C
:108A200040F20113BDF814209A4237D09DF814305B
:108A3000012B1DD09DF81530012B01D0022B16D033
:108A40004FF4807302200021A6F8903110F01CFD35
:108A5000044610B110F18C0FA7D10698FFF7AEFEB7
:108A600004460028A1D10F4800F028FB9DE7012310
:108A70004FF4C8720B48A6F8903110F00DF996F833
:108A8000910100210130E1E7012003A9FFF7CAFEAF
:108A9000B1E7002003A9FFF7C5FEA8E76FF0830444
:108AA00083E700BF9018023000100230002867D022
:108AB00038B5354B0D46D3E910120A4301D10138C0
:108AC0003CD0D3E918120A4301D1013846D0D3E98A
:108AD00020120A4301D1013842D0D3E928120A43B7
:108AE00001D101383ED0D3E930120A4301D1013817
:108AF0003AD0D3E938120A4301D1013836D0D3E94C
:108B000040120A4301D1013832D0D3E948120A4356
:108B100001D101382ED0D3E950120A4301D10138D6
:108B20002AD0D3E958120A4301D1013826D0D3E91B
:108B3000602313430FD101280DD10A20C41C204605
:108B4000002110F0A1FC18B110F18C0F00D038BD3D
:108B500000202C6038BD6FF08D0038BD0120EDE79E
:108B60000220EBE70320E9E70420E7E70520E5E73B
:108B70000620E3E70720E1E70820DFE70920DDE73B
:108B80006FF08600704700BF901802302DE9F04763
:108B900088B0EC4606460D46DFF8B0E11746984629
:108BA000BEE80F00ACE80F009EE80F00684C8CE8B0
:108BB0000F00D4E91032954208BF9E4262D0D4E93A
:108BC00018239D4208BF964272D0D4E920239D42CB
:108BD00008BF964272D0D4E928239D4208BF96422E
:108BE00073D0D4E930239D4208BF964274D0D4E9B3
:108BF00038239D4208BF964275D0D4E940239D4258
:108C000008BF964276D0D4E948239D4208BF9642D9
:108C100077D0D4E950239D4208BF964278D0D4E95A
:108C200058239D4208BF964279D0D4E960239D42E3
:108C300008BF96427AD04FF03009D8E90031DA1EE9
:108C400004EB4218013B580104EB421204EB4313BE
:108C500008F13008265097645D601022404610F0FD
:108C60001BF8FFF711FE054640B1DDE9042313436D
:108C700065D120220021404606F052FA284608B06D
:108C8000BDE8F087A36C9F4299D14FF000094FEAED
:108C9000491909F1300904EB090A514620226846B6
:108CA0000FF0FAFF50462022002106F039FAC4E7FF
:108CB000A36E9F4289D14FF00109E8E7D4F88830CC
:108CC0009F4288D14FF00209E1E7D4F8A8309F42D3
:108CD00087D14FF00309DAE7D4F8C8309F4286D134
:108CE0004FF00409D3E7D4F8E8309F4285D14FF024
:108CF0000509CCE7D4F808319F4284D14FF006092A
:108D0000C5E7D4F828319F4283D14FF00709BEE769
:108D1000D4F848319F4282D14FF00809B7E7D4F820
:108D200068319F4281D14FF00909B0E7D4F888310A
:108D30009F4208BF4FF00A097FF47DAFA7E769465D
:108D4000202204EB09000FF0A7FF92E72894010C02
:108D50009018023070B5484CD4E91056B14208BFA3
:108D6000A8423ED0D4E91856B14208BFA84247D025
:108D7000D4E92056B14208BFA84246D0D4E92856CB
:108D8000B14208BFA84246D0D4E93056B14208BF2C
:108D9000A84246D0D4E93856B14208BFA84246D0CE
:108DA000D4E94056B14208BFA84246D0D4E948565B
:108DB000B14208BFA84246D0D4E95056B14208BFDC
:108DC000A84246D0D4E95856B14208BFA84246D07E
:108DD000D4E96056B14208BFA84246D06FF08B007C
:108DE00070BDA56CAA42BDD10021CD1C04EB411180
:108DF000102258681D6030310FF04EFF002070BD0A
:108E0000A56EAA42B4D10121EFE7D4F88850AA4256
:108E1000B4D10221E9E7D4F8A850AA42B4D1032181
:108E2000E3E7D4F8C850AA42B4D10421DDE7D4F86E
:108E3000E850AA42B4D10521D7E7D4F80851AA4294
:108E4000B4D10621D1E7D4F82851AA42B4D10721E0
:108E5000CBE7D4F84851AA42B4D10821C5E7D4F8E9
:108E60006851AA42B4D10921BFE7D4F888118A42D7
:108E700008BF0A21B2D1B8E790180230514B30B583
:108E8000D3E91054A14208BFA84289B040D0D3E929
:108E90001854A14208BFA84257D0D3E92054A14298
:108EA00008BFA84256D0D3E92854A14208BFA8421F
:108EB00056D0D3E93054A14208BFA84256D0D3E9D6
:108EC0003854A14208BFA84256D0D3E94054A14229
